{
  "_format": "hh-sol-artifact-1",
  "contractName": "SimpleVoting",
  "sourceName": "contracts/SimpleVoting.sol",
  "abi": [
    {
      "inputs": [
        {
          "internalType": "uint256",
          "name": "_deadline",
          "type": "uint256"
        }
      ],
      "stateMutability": "nonpayable",
      "type": "constructor"
    },
    {
      "anonymous": false,
      "inputs": [
        {
          "indexed": false,
          "internalType": "string",
          "name": "name",
          "type": "string"
        }
      ],
      "name": "CandidateAdded",
      "type": "event"
    },
    {
      "anonymous": false,
      "inputs": [
        {
          "indexed": false,
          "internalType": "address",
          "name": "voter",
          "type": "address"
        },
        {
          "indexed": false,
          "internalType": "uint256",
          "name": "candidateIndex",
          "type": "uint256"
        }
      ],
      "name": "Voted",
      "type": "event"
    },
    {
      "inputs": [
        {
          "internalType": "string",
          "name": "_name",
          "type": "string"
        }
      ],
      "name": "addCandidate",
      "outputs": [],
      "stateMutability": "nonpayable",
      "type": "function"
    },
    {
      "inputs": [],
      "name": "candidateCount",
      "outputs": [
        {
          "internalType": "uint256",
          "name": "",
          "type": "uint256"
        }
      ],
      "stateMutability": "view",
      "type": "function"
    },
    {
      "inputs": [
        {
          "internalType": "uint256",
          "name": "",
          "type": "uint256"
        }
      ],
      "name": "candidates",
      "outputs": [
        {
          "internalType": "string",
          "name": "name",
          "type": "string"
        },
        {
          "internalType": "uint256",
          "name": "voteCount",
          "type": "uint256"
        }
      ],
      "stateMutability": "view",
      "type": "function"
    },
    {
      "inputs": [],
      "name": "deadline",
      "outputs": [
        {
          "internalType": "uint256",
          "name": "",
          "type": "uint256"
        }
      ],
      "stateMutability": "view",
      "type": "function"
    },
    {
      "inputs": [
        {
          "internalType": "uint256",
          "name": "_index",
          "type": "uint256"
        }
      ],
      "name": "getCandidate",
      "outputs": [
        {
          "internalType": "string",
          "name": "",
          "type": "string"
        },
        {
          "internalType": "uint256",
          "name": "",
          "type": "uint256"
        }
      ],
      "stateMutability": "view",
      "type": "function"
    },
    {
      "inputs": [],
      "name": "getOwner",
      "outputs": [
        {
          "internalType": "address",
          "name": "",
          "type": "address"
        }
      ],
      "stateMutability": "view",
      "type": "function"
    },
    {
      "inputs": [
        {
          "internalType": "address",
          "name": "",
          "type": "address"
        }
      ],
      "name": "hasVoted",
      "outputs": [
        {
          "internalType": "bool",
          "name": "",
          "type": "bool"
        }
      ],
      "stateMutability": "view",
      "type": "function"
    },
    {
      "inputs": [
        {
          "internalType": "uint256",
          "name": "_candidateIndex",
          "type": "uint256"
        }
      ],
      "name": "vote",
      "outputs": [],
      "stateMutability": "nonpayable",
      "type": "function"
    }
  ],
  "bytecode": "0x608060405234801561001057600080fd5b506040516114bc3803806114bc8339818101604052810190610032919061010b565b61004c67d758a81e82df7b3a60c01b6100cd60201b60201c565b6100666714b490469881d2e960c01b6100cd60201b60201c565b336000806101000a81548173ffffffffffffffffffffffffffffffffffffffff021916908373ffffffffffffffffffffffffffffffffffffffff1602179055506100c067c5cb6a37b64cf4d560c01b6100cd60201b60201c565b8060018190555050610138565b50565b600080fd5b6000819050919050565b6100e8816100d5565b81146100f357600080fd5b50565b600081519050610105816100df565b92915050565b600060208284031215610121576101206100d0565b5b600061012f848285016100f6565b91505092915050565b611375806101476000396000f3fe608060405234801561001057600080fd5b50600436106100885760003560e01c806335b8e8201161005b57806335b8e82014610128578063462e91ec14610159578063893d20e814610175578063a9a981a31461019357610088565b80630121b93f1461008d57806309eef43e146100a957806329dcb0cf146100d95780633477ee2e146100f7575b600080fd5b6100a760048036038101906100a29190610a40565b6101b1565b005b6100c360048036038101906100be9190610acb565b6104ec565b6040516100d09190610b13565b60405180910390f35b6100e161050c565b6040516100ee9190610b3d565b60405180910390f35b610111600480360381019061010c9190610a40565b610512565b60405161011f929190610be8565b60405180910390f35b610142600480360381019061013d9190610a40565b6105ce565b604051610150929190610be8565b60405180910390f35b610173600480360381019061016e9190610d4d565b610717565b005b61017d610946565b60405161018a9190610da5565b60405180910390f35b61019b6109aa565b6040516101a89190610b3d565b60405180910390f35b6101c56754e51796234d344760c01b6109f3565b6101d967b3ba144c6285dbc260c01b6109f3565b6101ed677ba6ad532106b16460c01b6109f3565b61020167fbabd03a0d56b0e760c01b6109f3565b6001544210610245576040517f08c379a000000000000000000000000000000000000000000000000000000000815260040161023c90610e0c565b60405180910390fd5b610259675d7906c0e9b1209e60c01b6109f3565b61026d67e2933447af8cc68860c01b6109f3565b61028167595164ea5a2a405260c01b6109f3565b61029567814eaf7e6a68e62a60c01b6109f3565b600360003373ffffffffffffffffffffffffffffffffffffffff1673ffffffffffffffffffffffffffffffffffffffff16815260200190815260200160002060009054906101000a900460ff1615610322576040517f08c379a000000000000000000000000000000000000000000000000000000000815260040161031990610e78565b60405180910390fd5b61033667e108b5cf8e4d3f3e60c01b6109f3565b61034a673699e77c84bfca4e60c01b6109f3565b61035e675e1cce566309d56160c01b6109f3565b6103726727e72ff304cfa65460c01b6109f3565b60028054905081106103b9576040517f08c379a00000000000000000000000000000000000000000000000000000000081526004016103b090610ee4565b60405180910390fd5b6103cd6772f7f44c144476af60c01b6109f3565b6103e1674c5a22e426b36ff060c01b6109f3565b600281815481106103f5576103f4610f04565b5b9060005260206000209060020201600101600081548092919061041790610f62565b919050555061043067855e9a0c23e133e660c01b6109f3565b6001600360003373ffffffffffffffffffffffffffffffffffffffff1673ffffffffffffffffffffffffffffffffffffffff16815260200190815260200160002060006101000a81548160ff02191690831515021790555061049c6703e9ba128df40f6860c01b6109f3565b6104b0677340a71226a4a44360c01b6109f3565b7f4d99b957a2bc29a30ebd96a7be8e68fe50a3c701db28a91436490b7d53870ca433826040516104e1929190610faa565b60405180910390a150565b60036020528060005260406000206000915054906101000a900460ff1681565b60015481565b6002818154811061052257600080fd5b906000526020600020906002020160009150905080600001805461054590611002565b80601f016020809104026020016040519081016040528092919081815260200182805461057190611002565b80156105be5780601f10610593576101008083540402835291602001916105be565b820191906000526020600020905b8154815290600101906020018083116105a157829003601f168201915b5050505050908060010154905082565b606060006105e66783987cc03096abb560c01b6109f3565b6105fa674c1824809662a3b860c01b6109f3565b61060e670c6ed1bc94cfac9f60c01b6109f3565b60006002848154811061062457610623610f04565b5b906000526020600020906002020160405180604001604052908160008201805461064d90611002565b80601f016020809104026020016040519081016040528092919081815260200182805461067990611002565b80156106c65780601f1061069b576101008083540402835291602001916106c6565b820191906000526020600020905b8154815290600101906020018083116106a957829003601f168201915b5050505050815260200160018201548152505090506106ef67baba346c8804a60b60c01b6109f3565b6107036725ca1b52267f052860c01b6109f3565b806000015181602001519250925050915091565b61072b67a2b1374ba2efd32860c01b6109f3565b61073f674da970d313d580fa60c01b6109f3565b610753679fb707aa0240004860c01b6109f3565b61076767807a294de380940d60c01b6109f3565b61077b6766f38d9c029500a860c01b6109f3565b60008054906101000a900473ffffffffffffffffffffffffffffffffffffffff1673ffffffffffffffffffffffffffffffffffffffff163373ffffffffffffffffffffffffffffffffffffffff1614610809576040517f08c379a00000000000000000000000000000000000000000000000000000000081526004016108009061107f565b60405180910390fd5b61081d67c24a8670e67f849960c01b6109f3565b61083167ce8b9a076c6f98e960c01b6109f3565b61084567fff78772ae3f7b1360c01b6109f3565b6108596776fbfae7c275446460c01b6109f3565b61086d67584b75555313c6ec60c01b6109f3565b61088167ca9cbc0bbf055d7e60c01b6109f3565b600260405180604001604052808381526020016000815250908060018154018082558091505060019003906000526020600020906002020160009091909190915060008201518160000190816108d7919061124b565b506020820151816001015550506108f867bc653453a442c7ab60c01b6109f3565b61090c671ea160dfa25057a260c01b6109f3565b7ff29562dad1599aea0ebb142466120aab326d5efa8f839df82a9c064bf78e89388160405161093b919061131d565b60405180910390a150565b600061095c67b0502d06f268e88e60c01b6109f3565b610970670209d49c6fe9a40b60c01b6109f3565b6109846751edcaf3cf18d3e960c01b6109f3565b60008054906101000a900473ffffffffffffffffffffffffffffffffffffffff16905090565b60006109c067d90f22af9392217e60c01b6109f3565b6109d4670832fb27fa8ae3d860c01b6109f3565b6109e867dfcebf0996071f5a60c01b6109f3565b600280549050905090565b50565b6000604051905090565b600080fd5b600080fd5b6000819050919050565b610a1d81610a0a565b8114610a2857600080fd5b50565b600081359050610a3a81610a14565b92915050565b600060208284031215610a5657610a55610a00565b5b6000610a6484828501610a2b565b91505092915050565b600073ffffffffffffffffffffffffffffffffffffffff82169050919050565b6000610a9882610a6d565b9050919050565b610aa881610a8d565b8114610ab357600080fd5b50565b600081359050610ac581610a9f565b92915050565b600060208284031215610ae157610ae0610a00565b5b6000610aef84828501610ab6565b91505092915050565b60008115159050919050565b610b0d81610af8565b82525050565b6000602082019050610b286000830184610b04565b92915050565b610b3781610a0a565b82525050565b6000602082019050610b526000830184610b2e565b92915050565b600081519050919050565b600082825260208201905092915050565b60005b83811015610b92578082015181840152602081019050610b77565b60008484015250505050565b6000601f19601f8301169050919050565b6000610bba82610b58565b610bc48185610b63565b9350610bd4818560208601610b74565b610bdd81610b9e565b840191505092915050565b60006040820190508181036000830152610c028185610baf565b9050610c116020830184610b2e565b9392505050565b600080fd5b600080fd5b7f4e487b7100000000000000000000000000000000000000000000000000000000600052604160045260246000fd5b610c5a82610b9e565b810181811067ffffffffffffffff82111715610c7957610c78610c22565b5b80604052505050565b6000610c8c6109f6565b9050610c988282610c51565b919050565b600067ffffffffffffffff821115610cb857610cb7610c22565b5b610cc182610b9e565b9050602081019050919050565b82818337600083830152505050565b6000610cf0610ceb84610c9d565b610c82565b905082815260208101848484011115610d0c57610d0b610c1d565b5b610d17848285610cce565b509392505050565b600082601f830112610d3457610d33610c18565b5b8135610d44848260208601610cdd565b91505092915050565b600060208284031215610d6357610d62610a00565b5b600082013567ffffffffffffffff811115610d8157610d80610a05565b5b610d8d84828501610d1f565b91505092915050565b610d9f81610a8d565b82525050565b6000602082019050610dba6000830184610d96565b92915050565b7f566f74696e6720656e6465640000000000000000000000000000000000000000600082015250565b6000610df6600c83610b63565b9150610e0182610dc0565b602082019050919050565b60006020820190508181036000830152610e2581610de9565b9050919050565b7f416c726561647920766f74656400000000000000000000000000000000000000600082015250565b6000610e62600d83610b63565b9150610e6d82610e2c565b602082019050919050565b60006020820190508181036000830152610e9181610e55565b9050919050565b7f496e76616c69642063616e646964617465000000000000000000000000000000600082015250565b6000610ece601183610b63565b9150610ed982610e98565b602082019050919050565b60006020820190508181036000830152610efd81610ec1565b9050919050565b7f4e487b7100000000000000000000000000000000000000000000000000000000600052603260045260246000fd5b7f4e487b7100000000000000000000000000000000000000000000000000000000600052601160045260246000fd5b6000610f6d82610a0a565b91507fffffffffffffffffffffffffffffffffffffffffffffffffffffffffffffffff8203610f9f57610f9e610f33565b5b600182019050919050565b6000604082019050610fbf6000830185610d96565b610fcc6020830184610b2e565b9392505050565b7f4e487b7100000000000000000000000000000000000000000000000000000000600052602260045260246000fd5b6000600282049050600182168061101a57607f821691505b60208210810361102d5761102c610fd3565b5b50919050565b7f4e6f74206f776e65720000000000000000000000000000000000000000000000600082015250565b6000611069600983610b63565b915061107482611033565b602082019050919050565b600060208201905081810360008301526110988161105c565b9050919050565b60008190508160005260206000209050919050565b60006020601f8301049050919050565b600082821b905092915050565b6000600883026111017fffffffffffffffffffffffffffffffffffffffffffffffffffffffffffffffff826110c4565b61110b86836110c4565b95508019841693508086168417925050509392505050565b6000819050919050565b600061114861114361113e84610a0a565b611123565b610a0a565b9050919050565b6000819050919050565b6111628361112d565b61117661116e8261114f565b8484546110d1565b825550505050565b600090565b61118b61117e565b611196818484611159565b505050565b5b818110156111ba576111af600082611183565b60018101905061119c565b5050565b601f8211156111ff576111d08161109f565b6111d9846110b4565b810160208510156111e8578190505b6111fc6111f4856110b4565b83018261119b565b50505b505050565b600082821c905092915050565b600061122260001984600802611204565b1980831691505092915050565b600061123b8383611211565b9150826002028217905092915050565b61125482610b58565b67ffffffffffffffff81111561126d5761126c610c22565b5b6112778254611002565b6112828282856111be565b600060209050601f8311600181146112b557600084156112a3578287015190505b6112ad858261122f565b865550611315565b601f1984166112c38661109f565b60005b828110156112eb578489015182556001820191506020850194506020810190506112c6565b868310156113085784890151611304601f891682611211565b8355505b6001600288020188555050505b505050505050565b600060208201905081810360008301526113378184610baf565b90509291505056fea2646970667358221220fd1c2a6a73df3c2435816c674292700077db24db2cc586b7d92ab77e109b05ca64736f6c634300081c0033",
  "linkReferences": {},
  "deployedLinkReferences": {}
}